:020000040800F2
:10000000E01A00206902000833370008752500084F
:10001000313700087B040008F13F000800000000B1
:10002000000000000000000000000000373700085A
:10003000390500080000000035370008393700088E
:10004000830200088302000883020008830200087C
:10005000830200088302000883020008830200086C
:100060008302000883020008830200087D04000860
:10007000830200088302000883020008830200084C
:10008000830200088302000883020008830200083C
:10009000830200088302000883020008830200082C
:1000A000DD3700082138000805380008F937000856
:1000B000830200083D380008493800088302000820
:1000C00083020008830200088302000883020008FC
:1000D00083020008830200088302000883020008EC
:1000E00083020008830200088302000861380008C8
:1000F000A5380008893800087D3800088302000808
:1001000083020008830200085538000883020008B3
:1001100083020008830200088302000883020008AB
:100120008302000889040008830200088302000893
:10013000830200088302000883020008830200088B
:10014000830200088302000883020008830200087B
:10015000830200088302000883020008E53F0008CC
:10016000830200088302000883020008830200085B
:1001700083020008830200088302000800000000D8
:10018000830200088302000800F002F800F05CF827
:100190000AA090E8000C82448344AAF10107DA45E2
:1001A00001D100F051F8AFF2090EBAE80F0013F0D8
:1001B000010F18BFFB1A43F0010318478CB400006D
:1001C000ACB400000A444FF0000C10F8013B13F0EF
:1001D000070408BF10F8014B1D1108BF10F8015BA0
:1001E000641E05D010F8016B641E01F8016BF9D193
:1001F00013F0080F1EBF10F8014BAD1C0C1B09D1EA
:100200006D1E58BF01F801CBFAD505E014F8016B5B
:1002100001F8016B6D1EF9D59142D6D370470000ED
:100220000023002400250026103A28BF78C1FBD8FF
:10023000520728BF30C148BF0B6070471FB50BF095
:10024000B7F81FBD10B510BD00F0E2F81146FFF77A
:10025000F5FF06F0C7FA00F000F903B4FFF7F2FF6C
:1002600003BC00F003F90000094880470948004733
:10027000FEE7FEE7FEE7FEE7FEE7FEE7FEE7FEE756
:10028000FEE7FEE704480549054A064B70470000B3
:10029000CD37000889010008E0140020E01A002092
:1002A000E0160020E016002053EA020C00F06980FE
:1002B0002DE9F04B4FF00006002B1FBFB3FA83F57A
:1002C00003FA05F424FA05F65E4012BF1643B2FAAB
:1002D00082F502FA05F4C5F120051EBF22FA05FCDD
:1002E00044EA0C04203556EA044C4FEA144418BF83
:1002F000641C4FF000084FF00009904271EB030CB2
:1003000039D3002919BFB1FA81F701FA07F6B0FA1B
:1003100080F700FA07F6C7F120071EBF20FA07FC96
:1003200046EA0C062037B6FBF4FCA7EB0507103FA6
:1003300007F01F0BCBF120060CFA0BFB2CFA06F68C
:1003400044BFB3460026202FA4BF5E464FF0000BEB
:100350005BEA060C08BF4FF0010B19EB0B09ABFB76
:10036000027C48EB0608C01B06FB02CC0BFB03CC4F
:1003700071EB0C01C1E70B46024641464846BDE819
:10038000F08B13B54FF000004FF00001AFF3008089
:10039000BDE81C4070474FF0000200B5134694467C
:1003A0009646203922BFA0E80C50A0E80C50B1F1CD
:1003B0002001BFF4F7AF090728BFA0E80C5048BFE1
:1003C0000CC05DF804EB890028BF40F8042B08BF7F
:1003D000704748BF20F8022B11F0804F18BF00F87B
:1003E000012B704770477047704710B500F008F850
:1003F000006810BD10B5044600F002F8046010BD9E
:10040000004870477C140020004870477C1400208E
:100410007546FFF7F9FFAE4605006946534620F0E2
:100420000700854618B020B5FFF72CFFBDE8204037
:100430004FF000064FF000074FF000084FF0000BA0
:1004400021F00701AC46ACE8C009ACE8C009ACE853
:10045000C009ACE8C0098D46704710B50446AFF33B
:1004600000802046BDE81040FFF7F7BE0149182084
:10047000ABBEFEE7260002007047FEE7014800F031
:10048000B9B8000094130020014800F0B3B8000090
:10049000F413002001681823CAB2103AB2FBF3F239
:1004A000054B6FF30901032A9B5CC36500D9091D45
:1004B0008165084670470000AAB4000810B50146DF
:1004C00000208B698A6A4FF0C07453B1B3F5005FA6
:1004D00015D072B1012A0CD0022A0AD0032A09D100
:1004E00004E01AB1012A06D0022A03D1C96AC9015F
:1004F00000D5012010BDC96AA142FAD010BD002A62
:10050000F7D0012AF2D0022AF3D0032AF3D010BD8B
:1005100030B50468256825F480252560046863608B
:100520008368402B036803D099600068C26030BDC7
:100530009A600068C16030BD704772B6FEE72DE971
:10054000F0410446876D00F0DBFA064694F835006A
:100550000025022806D08020606584F834500120F0
:10056000BDE8F0812068016821F016010160206873
:10057000416921F080014161206C08B9A06C20B173
:100580002068016821F0080101602068016821F0FD
:10059000010101600CE000F0B3FA801B052807D9C7
:1005A00020206065032084F8350084F83450D7E7B4
:1005B00020680068C007EED194F85C103F208840A6
:1005C000B860012084F8350084F834500020C7E773
:1005D00090F83510022903D0802141650120704731
:1005E000052180F835100068016821F001010160E3
:1005F000002070472DE9F84304464FF00009CDF87C
:10060000009063484FF41651A56D0068B0FBF1F7F8
:100610002E6894F85C10082000FA01F131420FD0E6
:1006200021680A6852070BD50A6822F004020A60A2
:1006300094F85C108840A860606D40F0010060652F
:1006400094F85C104FF0010808FA01F0304208D02D
:1006500021684969090604D5A860606D40F0020070
:10066000606594F85C1004208840304208D021680E
:100670000968890704D5A860606D40F004006065D2
:1006800094F85C1010208840304218D02168096826
:10069000090714D5A86020680168490304D50068DB
:1006A000000308D5A16C07E00168C90503D40168FF
:1006B00021F008010160216C09B12046884794F8B7
:1006C0005C1020208840304231D021680968C9067A
:1006D0002DD5A86094F8350005282068016806D05B
:1006E000490347D5006800031DD4616C1CE021F06C
:1006F000160101602068416921F080014161206C90
:1007000008B9A06C20B12068016821F008010160DF
:1007100094F85C103F208840A86084F8358084F805
:100720003490216D1FE0E16B09B120468847606D70
:1007300000282BD0606DC00714D0052084F8350048
:100740002068016821F0010101600098401C0090C0
:10075000B84203D820680068C007F6D184F8358015
:1007600084F83490E16C002910D001B02046BDE837
:10077000F04308470168C905D5D4016821F010018C
:10078000016084F8358084F83490CCE7BDE8F883C4
:10079000740300202DE9F041044600F0B1F906464B
:1007A0005CB1022084F83500002584F834502068BC
:1007B000016821F0010101600DE00120BDE8F08138
:1007C00000F09EF9801B052805D9202060650320D4
:1007D00084F83500F2E720680068C007F0D122688D
:1007E000116820480140D4E901031843D4E90336D5
:1007F0003343184363691843A3691843E3691843F3
:10080000236A18430843616A042903D1D4E90B130E
:1008100019430843106020684069666A20F00701A8
:1008200030460E43012704280CD1A06A0643E06A33
:1008300040B12046FFF742FE20B14020606584F8B9
:100840003570BAE7206846612046FFF723FE94F82A
:100850005C203F2191408160656584F835700020FF
:10086000ACE700003F8010F02DE9F0410446866DB2
:1008700090F83400002501280DD0012084F83400C0
:1008800094F835700020012F07D084F83400022539
:100890002846BDE8F0810220FBE7022784F8357086
:1008A00060652046FFF734FE94F85C103F208840D6
:1008B000B0602068016841F016010160206C20B131
:1008C0002068016841F0080101602068016841F07A
:1008D00001010160DCE7000070B5044600F010F98A
:1008E0000546601C02D004480078044400F008F972
:1008F000401BA042FAD370BD680300202DE9F84FD9
:10090000DFF8BCA10022012503264FF00F090AF1F0
:10091000040BAAF1040E00BF0B6805FA02F4234091
:10092000A34270D10F7907F00307012F01D0022FE6
:1009300016D187684FEA420806FA08FC27EA0C0736
:10094000D1F80CC00CFA08FC4CEA070CC0F808C03F
:100950004768A7430C79C4F3001494403C434460B7
:100960000C79E443A4070AD0C4684FEA420C06FAA3
:100970000CF7BC438F6807FA0CF72743C7600C7964
:1009800004F00304022C12D1D40800EB840CDCF830
:1009900020405707FF0E09FA07F824EA0804D1F8A7
:1009A000108008FA07F848EA0408CCF820800468A8
:1009B0004FEA420C06FA0CF7BC430F7907F0030725
:1009C00007FA0CF7274307604C6814F4403F70D0D7
:1009D0003C4C276847F480472760246822F00307CF
:1009E00004F480440094384C07EB040CDCF808480D
:1009F00097074FEA177809FA08F7BC43334FB84214
:100A000002D1002724E054E0314FB84201D1012740
:100A10001EE0304FB84201D1022719E02E4FB842F4
:100A200001D1032714E02D4FB84201D104270FE074
:100A30002B4FB84201D105270AE02A4FB84201D115
:100A4000062705E0284FB84201D1072700E0082714
:100A500007FA08F72743CCF80878DAF80040574639
:100A6000D1F804C09C435FEACC2C00D51C433C6009
:100A7000DBF800405F46D1F804C09C435FEA8C2C51
:100A800000D51C433C60DEF800407746D1F804C036
:100A90009C435FEA8C3C00D51C433C60084F083FF8
:100AA0003C68D1F804C09C435FEACC3C00D51C43B1
:100AB0003C60521C102AFFF42FAFBDE8F88F0000F5
:100AC000083C014044380240003001400000024030
:100AD0000004024000080240000C024000100240E6
:100AE0000014024000180240001C02400069084047
:100AF00000D0012070470AB1816170470904FBE70B
:100B000001488068704700006803002070B5040049
:100B100025D094F83D00002520B984F83C502046AB
:100B200000F0B4F9242084F83D002068016821F029
:100B3000010101602068016841F400410160206802
:100B4000016821F40041016000F024FB4D4A616816
:100B5000914201D84C4900E04C49884201D2012021
:100B600070BD4B492368B0FBF1F15E6826F03F068B
:100B70000E435E606368934206D94FF496735943FF
:100B80004FF47A73B1FBF3F12368491C1E6A26F017
:100B90003F06314319626168914210D84900401EF6
:100BA000B0FBF1F2521CC2F30B02042A01D2042062
:100BB00022E0B0FBF1F0401CC0F30B001CE0A26887
:100BC000F2B301EBC10303EB0116431EB3FBF6F3D3
:100BD0005B1C43F480431B0549D092B301EBC10277
:100BE00002EB0111401EB0FBF1F0401CC0F30B0002
:100BF00040F4804040F400402168CA694CF6FF731D
:100C00009A431043C861D4E9071001432068026881
:100C100022F0C00211430160D4E9030101432068BE
:100C2000826848F2FF339A4311438160D4E9050199
:100C300008432168CA6822F0FF021043C86001E03F
:100C40000EE016E02068016841F0010101602564B2
:100C5000202084F83D00256384F83E50002070BDBC
:100C600001EB4106431EB3FBF6F35B1CB3E7012027
:100C7000C2E701EB4101401EB0FBF1F0401CC0F3A4
:100C80000B00B7E7A086010080841E0000093D002C
:100C900040420F002DE9FF4F83B09A46DDE91197DE
:100CA00093460446DDF84080FFF72AFF054694F896
:100CB0003D00202870D1192301227149204600955A
:100CC00001F0EEFC0028F5D194F83C00012863D037
:100CD000012084F83C0020680168C90703D101683D
:100CE00041F0010101602068016821F400610160A8
:100CF000222084F83D00402084F83E00002626642F
:100D0000C4F82480A4F82A90608D20855D48E062B4
:100D1000CDE9007553465A462046049901F042FC3D
:100D200000287CD1208DD0B1012821D00228206854
:100D300024D0416980690090208D032869D801285A
:100D40002BD0514902283B464FF00002009559D064
:100D50008846204601F0A4FC002860D13CE02068D1
:100D6000416981690091016841F40071016077E097
:100D70002068016821F480610160F0E7016821F4D6
:100D8000806101602068016841F4006101602068B1
:100D900041698069009063E06FE02A463946204649
:100DA00001F0FDFC98BB20680069616A08704EE0A4
:100DB0002068016841F40071016020680069616A7F
:100DC0000870606A401C6062218D491E2185618D1A
:100DD000491E6185216838E02068016821F480613E
:100DE000016020680069616A0870606A401C606286
:100DF000208D401E2085608D401E60853B46002270
:100E000041460095204601F04BFC00B9D0E706E0D2
:100E1000FFE72A463946204601F0C1FC18B10120FF
:100E200007B0BDE8F08F20680069616A0870606AE9
:100E3000401C6062218D491E2185618D491E61859E
:100E400021684A69D24352070AD409690170606A6D
:100E5000401C6062208D401E2085608D401E608594
:100E6000208D00287FF468AF202084F83D0084F8AE
:100E70003E6084F83C600020D2E70220D0E700000A
:100E8000020010000000FFFF0400010070B586B0F2
:100E9000064614216846FFF77EFA1F4930688842EB
:100EA00038D11E480025016841F002010160006848
:100EB000694600F002000590C02000901220CDE9A4
:100EC000010503200390042004901548FFF716FD48
:100ED00012481030016841F4001101600068124CA2
:100EE00000F4001005900F4820604005C4E901059A
:100EF000C013C4E9035080106561C4E90650400284
:100F0000C4E908052046FFF745FC08B1FFF715FBCB
:100F1000B463A66306B070BD005400403038024090
:100F200000040240106002409413002002488168CF
:100F30000278114481607047680300200B4810B5A7
:100F4000016841F400710160016841F48061016051
:100F5000016841F480710160032000F06FF80F20F8
:100F600000F006F800F024F8002010BD003C02401C
:100F700070B50D4D04464FF47A712878B1FBF0F04E
:100F80000A490968B1FBF0F000F00CFB48B9102CDD
:100F900007D200222146501E00F030F800206C607D
:100FA00070BD012070BD00006803002074030020A4
:100FB0000A4808B5016841F480410160006800F406
:100FC000804000900548001F016841F08051016099
:100FD000006800F08050009008BD000044380240D6
:100FE000002809DB00F01F02012191404009800028
:100FF00000F1E020C0F8001170470000F0B40E4B83
:101000001B680C46C3F30223C3F10705042D00D966
:101010000425191D072901D2002300E0DB1E01264B
:1010200006FA05F1491E214099409E40761E164061
:101030003143F0BC02F0F5BF0CED00E0064900F0D2
:10104000070208684FF6FF03184040EA0220034AEF
:1010500010430860704700000CED00E00000FA0546
:101060002DE9F0470E46050065D0DFF81481D8F869
:101070000000F7B200F00700B04207D288F8007015
:10108000D8F8000000F00700B04254D128683D4C69
:10109000810712D5400703D5206840F4E050206056
:1010A0002878000703D5206840F46040206020685D
:1010B000A96820F0F000084320602878C0072DD0F0
:1010C000304968680839012812D0022813D0032853
:1010D00011D00968890700292DDA216821F0030160
:1010E00001432160FFF70CFD814641F2883A0EE092
:1010F00009688903EFE709688901ECE7FFF700FD5C
:10110000A0EB0901514502D90320BDE8F087206812
:10111000696800F00C00B0EB810FEFD1D8F8001037
:10112000404601F00701B14207D90770006800F09E
:101130000700B04201D00120E7E72878400705D535
:101140002068E96820F4E050084320602878000710
:1011500006D52068296920F4604040EAC10020607B
:1011600000F038F82168084AC1F30311515CC84007
:101170000649086006480068FFF7FAFE0020C4E749
:10118000003C024008380240B2B40008740300205A
:101190006C0300200448054900680968044AC1F34B
:1011A0008221515CC8407047740300200838024017
:1011B000C2B400080448054900680968044AC1F33C
:1011C0004231515CC8407047740300200838024027
:1011D000C2B40008154810B5006810F00C0214489D
:1011E00013D01449042A0FD0082A0ED10F4C241F03
:1011F0002268236802F03F025B0207D52068C0F333
:101200008810A0FB010106E0084610BD2168C1F36B
:101210008811A1FB00010023FFF746F82168C1F304
:101220000141491C4900B0FBF1F010BD08380240F3
:101230000024F40040787D012DE9F84F04006ED0C1
:101240002078DFF84C93C007A9F104054AD009F1D2
:1012500004000168C1F38101012908D00068C0F3CE
:10126000810002280AD1D9F80000400206D528687A
:10127000800337D560680028E1D033E06068B0F5BE
:10128000803F10D0B0F5A02F286810D020F4803017
:101290002860286820F4802028606068A8B1FFF7E3
:1012A0002FFC06460DE0286840F48030F4E740F457
:1012B00080202860F7E700BFFFF722FC801B64282E
:1012C00073D828688003F7D50CE0FFF719FC0646B1
:1012D00005E000BFFFF714FC801B6428F0D82868E5
:1012E0008003F7D42078DFF8AC8280074FF0000A43
:1012F0003ED5A748001D016811F00C0F08D000680A
:10130000C0F3810002280BD1D9F80000400207D4B5
:101310002868800716D5E068012800D112E033E183
:10132000E068B8B10120C8F80000FFF7E9FB064605
:1013300005E000BFFFF7E4FB801B0228C0D8286847
:101340008007F7D52868216920F0F80040EAC1003D
:1013500028600DE0C8F800A0FFF7D2FB064604E0C5
:10136000FFF7CEFB801B02281FD828688007F7D420
:101370002078000722D5864F87486169703771B1A0
:1013800001210160FFF7BCFB064604E0FFF7B8FB54
:10139000801B022809D838688007F7D50EE0C0F80E
:1013A00000A0FFF7ADFB064605E082E0FFF7A8FBD3
:1013B000801B02287DD838688007F7D42078400742
:1013C00068D5DFF8CCB100270BF13C0BDBF800004F
:1013D000C0000BD4DBF8001041F08051CBF80010B6
:1013E000DBF80000012700F0805000906B4E306861
:1013F000C00510D4306840F480703060FFF780FB87
:10140000009005E0FFF77CFB0099401A022850D8B5
:101410003068C005F6D55E4EA0686C3601280FD046
:101420000528306810D020F001003060306820F0CE
:1014300004003060A068B8B1FFF762FB00900FE0D5
:10144000306840F00100F4E740F004003060F7E756
:10145000FFF756FB0099411A41F28830814266D865
:1014600030688007F4D50EE0FFF74AFB009007E0F4
:10147000FFF746FB0099411A41F28830814256D865
:1014800030688007F4D42FB1DBF8001021F08051D0
:10149000CBF80010A069C8B33D49091D0968C1F324
:1014A000810102294AD00228504607D0C8F86000BE
:1014B00000E03CE0FFF724FB04463BE04746C8F869
:1014C0006000FFF71DFB064605E000BFFFF718FBB5
:1014D000801B02282BD828688001F7D4D4E90701A3
:1014E0000843A16A2E4A490802EB0141626A41EAB7
:1014F0008211084394F82C1040EA0161C9F80010E9
:1015000001203866FFF7FCFA044606E03EE000BF23
:10151000FFF7F6FA001B022809D828688001F7D5E2
:1015200034E000BFFFF7ECFA001B022802D90320C9
:10153000BDE8F88F28688001F4D427E00128F7D0AF
:10154000D9F80000E26900F4800191421CD1226ABE
:1015500000F03F01914217D147F6C071626A014025
:10156000B1EB821F10D1A26A4FF0FF3300F440317B
:1015700003EB5202B1EB024F06D194F82C1000F0AD
:101580007060B0EB016F01D00120D1E70020CFE700
:101590000438024000004742800E4742007000407D
:1015A0000000FFFF10B5401EB0F1807F01D3012085
:1015B00010BD4FF0E02460610F21601702F031FD93
:1015C0000020A06107202061002010BD70477047F7
:1015D00010B590F83C20012A22D0012280F83C204E
:1015E000CA688C6822F4407222434C6822F48062FC
:1015F00022430C6822F4006222430C6922F48052D8
:1016000022434C6922F400522243C969002322F488
:1016100080420A4301684A6480F83C30002010BDD3
:10162000022010BD70B590F83C20012A32D0012470
:1016300080F83C40022280F83D2003685A689D688B
:1016400022F070060A6832435A60134B02689A42CD
:1016500014D0B2F1804F11D0104B9A420ED0104BE3
:101660009A420BD00F4B9A4208D00F4B9A4205D0AA
:101670000E4B9A4202D00E4B9A4204D1496825F093
:1016800080031943916080F83D40002180F83C10B0
:10169000084670BD022070BD0000014000040040FB
:1016A00000080040000C00400004014000400140E0
:1016B0000018004010B50446022249B104290ED09A
:1016C000082913D094F84500012816D0012010BD38
:1016D00094F842000128F9D184F842200FE094F8F0
:1016E00043000128F2D184F8432008E094F8440034
:1016F0000128EBD184F8442001E084F8452004223D
:10170000206802F04EF92068416C41F400414164C8
:1017100011492068884214D0B0F1804F11D00F4990
:1017200088420ED00E4988420BD00E49884208D01C
:101730000D49884205D00D49884202D00C498842A3
:1017400004D1816801F00701062903D0016841F046
:1017500001010160002010BD0000014000040040B4
:1017600000080040000C004000040140004001401F
:101770000018004010B5040003D094F83D0010B1EB
:1017800007E0012010BD002084F83C00204600F056
:101790001FF8022084F83D00211D206802F090F817
:1017A000012084F8460084F83E0084F83F0084F865
:1017B000400084F8410084F8420084F8430084F833
:1017C000440084F8450084F83D00002010BD00006E
:1017D00008B5026884488549824226D1086840F0ED
:1017E000010008600868002200F001000090114626
:1017F0001820FFF703FC1820FFF7F2FB0022114628
:101800001920FFF7FBFB1920FFF7EAFB0022114626
:101810001A20FFF7F3FB1A20FFF7E2FB0022114624
:101820001B20FFF7EBFB1B20D9E07048001FB2F133
:10183000804F11D06E4B9A4217D1016841F00201DE
:1018400001600068002200F00200009011461D2097
:10185000FFF7D4FB1D20C2E0016841F001010160E7
:10186000006800F00100009008BD624B9A420ED162
:10187000016841F0040101600068002200F00400EA
:10188000009011461E20FFF7B9FB1E20A7E05A4B1F
:101890009A420ED1016841F00801016000680022FF
:1018A00000F00800009011463220FFF7A7FB32201D
:1018B00095E0524B9A4226D1086840F00200086039
:1018C0000868002200F00200009011462B20FFF76C
:1018D00095FB2B20FFF784FB002211462C20FFF7FD
:1018E0008DFB2C20FFF77CFB002211462D20FFF7FB
:1018F00085FB2D20FFF774FB002211462E20FFF7F9
:101900007DFB2E206BE03E4B9A420ED1086840F4DE
:10191000803008600868002200F480300090114692
:101920001820FFF76BFB182059E0364B9A420ED176
:10193000086840F4003008600868002200F40030B5
:10194000009011461920FFF759FB192047E02E4B54
:101950009A420ED1086840F480200860086800228E
:1019600000F48020009011461A20FFF747FB1A2050
:1019700035E026498A420ED1016841F040010160FC
:101980000068002200F04000009011462B20FFF775
:1019900035FB2B2023E01E498A420ED1016841F01D
:1019A000800101600068002200F080000090114674
:1019B0002C20FFF723FB2C2011E016498A427FF4EC
:1019C00053AF016841F4807101600068002200F4A7
:1019D0008070009011462D20FFF710FB2D20BDE8F0
:1019E0000840FFF7FDBA0000000001404438024003
:1019F0000004004000080040000C004000040140CA
:101A000000400140004401400048014000180040EF
:101A1000001C00400020004070B5044690F83C00D7
:101A20000025012817D0012684F83C60022084F8A4
:101A30003D002068826822F0770222F47F428260B3
:101A40000868502838D00DDC20284FD005DC90B332
:101A5000102811D14AE0022070BD302846D040281D
:101A60000AD13BE060282FD070280DD0B0F5805F00
:101A700003D0B0F5005F12D0012584F83D6000204E
:101A800084F83C00284670BDCB68D1E9012120686C
:101A900001F094FF2068816841F0770109E0CB688C
:101AA000D1E90121206801F089FF2068816841F4B3
:101AB00080418160E1E719E0CA684968206802F066
:101AC00051F85021206806E0CA684968206802F091
:101AD0005AF86021206801F07BFFCEE7CA684968A8
:101AE000206802F03FF840212068F4E722680146B0
:101AF0001046F0E7704770B50446006801694FF082
:101B00000005C943890715D4C168C943890711D4A1
:101B1000E91E016101202077206880698007204646
:101B200002D0FFF7E7FF04E000F0EEF9204600F0F6
:101B300080FA257720680169C943490717D4C1682D
:101B4000C943490713D46FF00401016102202077D3
:101B50002068806910F4407F204602D0FFF7CAFF5A
:101B600004E000F0D1F9204600F063FA2577206800
:101B70000169C943090716D4C168C943090712D4CA
:101B80006FF008010161042020772068C069800798
:101B9000204602D0FFF7AEFF04E000F0B5F9204682
:101BA00000F047FA257720680169C943C90617D4B0
:101BB000C168C943C90613D46FF010010161082040
:101BC00020772068C06910F4407F204602D0FFF7DC
:101BD00091FF04E000F098F9204600F02AFA2577FA
:101BE00020680169C943C90708D1C168C943C90749
:101BF00004D1891E0161204600F080FA2068016945
:101C0000C943090609D4C168C943090605D46FF060
:101C1000800101612046FFF7D9FC20680169C943B2
:101C2000490609D4C168C943490605D46FF040018B
:101C30000161204600F063FA20680169C943890602
:101C40000BD4C168C943890607D46FF02001016134
:101C50002046BDE87040FFF7BABC70BD2DE9F043E7
:101C600087B0044614216846FEF795FB954B226821
:101C7000002595490226032401279448DFF8508265
:101C80009A421FD10A6842F010020A600A6802F004
:101C9000100205920A6842F001020A600968CDE963
:101CA000025401F0010105915914CDE90016049781
:101CB0006946FEF723FE4FF43060CDE90006694621
:101CC000049776E0DFF80C92B2F1804F25D0DFF870
:101CD00008C24FF48073624547D1086840F00400A1
:101CE0000860086800F004000590086840F00200F1
:101CF00008600868CDE9003600F00200CDE9046014
:101D0000CDE9025469467548FEF7F8FD3020CDE96B
:101D1000000669460496484620E0086840F0010045
:101D20000860086800F001000590086840F00200B3
:101D300008600868CDE9025400F00200059048F2FE
:101D40000C00CDE90006694604974046FEF7D6FD33
:101D50000820CDE9000669460497DCE7CDE9025486
:101D6000FEF7CCFD07B0BDE8F083DFF874C1624533
:101D70000FD1086840F0080008600868694600F064
:101D8000080005904FF4E040CDE900065548049660
:101D9000E4E7DFF854C162450DD1086840F0010066
:101DA00008600868CDE9004600F00100CDE9046054
:101DB00069464046D2E7DFF834C162450DD1086874
:101DC00040F0020008600868CDE9025400F002000B
:101DD000CDE90440694648465CE0DFF814C140277D
:101DE00062450CD10A6842F010020A600968CDE928
:101DF000025401F01001CDE9044169464AE03D4832
:101E000082420FD1086840F0020008600868CDE9FE
:101E1000025400F00200CDE90440CDE900366946E5
:101E200048469DE7344882420FD1086840F00200DE
:101E300008600868CDE9025400F0020005905015D2
:101E4000CDE900066946049412E02C4B09209A4221
:101E500010D10A6842F002020A600968029501F096
:101E600002010591D900CDE90016CDE9034069468C
:101E7000484675E7224B9A420FD10A6842F00102A8
:101E80000A600968CDE9025401F00101CDE90401BD
:101E900069464046CDE9007662E71A4B9A427FF4E4
:101EA00061AF0A6842F001020A600968029501F018
:101EB000010105918021CDE90016CDE90340694675
:101EC00040464DE70000014030380240001002401B
:101ED00000000240000402400004004000080240EC
:101EE00000080040000C0240000C004000040140CB
:101EF00000400140004401400048014000180040FB
:101F0000001C004000200040704770B5044690F867
:101F10003C0000260D4601280FD0012084F83C002B
:101F20006AB1042A1DD0082A2FD00C2A3FD00126DE
:101F3000002084F83C00304670BD022070BD20684F
:101F400001F04EFD2068816941F00801816120683F
:101F5000816921F004018161206881692A69114346
:101F600011E0206801F06CFD2068816941F4006196
:101F700081612068816921F48061816120688169C3
:101F80002A6941EA02218161D2E7206801F08EFDD1
:101F90002068C16941F00801C1612068C16921F070
:101FA0000401C1612068C1692A69114311E02068F8
:101FB00001F0B0FD2068C16941F40061C161206891
:101FC000C16921F48061C1612068C1692A6941EA5F
:101FD0000221C161ACE710B5040003D094F83D00C4
:101FE00010B107E0012010BD002084F83C0020461D
:101FF00000F01EF8022084F83D00211D206801F049
:102000005FFC012084F8460084F83E0084F83F001D
:1020100084F8400084F8410084F8420084F84300CA
:1020200084F8440084F8450084F83D00002010BD89
:102030007047704710B50446022249B104290ED0FA
:10204000082913D094F84100012816D0012010BDB2
:1020500094F83E000128F9D184F83E200FE094F86E
:102060003F000128F2D184F83F2008E094F84000B6
:102070000128EBD184F8402001E084F841200122BE
:10208000206801F081FC16492068164A884201D078
:10209000904203D1436C43F4004343642068884278
:1020A00013D0B0F1804F10D00F4988420DD00F49A6
:1020B00088420AD00E49884207D0904205D00D4987
:1020C000884202D00C49884204D1816801F007019E
:1020D000062903D0016841F001010160002010BD14
:1020E00000000140000401400004004000080040DE
:1020F000000C00400040014000180040704770474D
:1021000070477047F8B5016804460868CA684B69AB
:1021100010F00F0F4FF0000559D003F0010602F444
:102120009077374365D0C10705D0D10503D5216C21
:1021300041F001012164410705D5D90703D0216C85
:1021400041F002012164810705D5D90703D0216C34
:1021500041F004012164010707D502F02001314359
:1021600003D0216C41F008012164216C00293AD090
:10217000800604D5900602D5204601F0C6FD2068F1
:102180004069216CC0F38010090700D460B3204679
:1021900001F086FD20684069400621D52068143092
:1021A00050E8001F21F0400140E80012002AF5D15C
:1021B000A06BA8B16C490165A06BFEF709FA002875
:1021C00011D0A06B016D01B0BDE8F0400847830657
:1021D0000FD593060DD52046BDE8F84001F095BD1A
:1021E0002046FFF78EFFF8BD2046FFF78AFF2564E3
:1021F000F8BD266B2023012E79D1C60677D5D606E9
:1022000075D50868486800904869400640D5A16BBC
:10221000086840680004000CEAD0A28D8242E7D929
:10222000E085C869B0F5807F2DD020680C3050E87B
:10223000001F21F4807140E80012002AF5D12068C7
:10224000143050E8001F21F0010140E80012002A7C
:10225000F5D12068143050E8001F21F0400140E81B
:102260000012002AF5D184F83E30256320680C3036
:1022700050E8001F21F0100140E80012002AF5D1BB
:10228000A06BFEF75CF9A08DE18D401A81B229E0C8
:10229000A08DE18D401A81B2E08D0028A8D00029E0
:1022A000A6D020680C3050E8002F22F4907240E84D
:1022B0000026002EF5D12068143050E8002F22F0BF
:1022C000010240E80026002EF5D184F83E30256357
:1022D00020680C3050E8002F22F0100240E8002364
:1022E000002BF5D12046FFF70BFFF8BDFFE70506F1
:1022F0002BD5150629D594F83D002128F5D1A068E5
:10230000B0F5805F01D12069B0B1206A411C216223
:10231000216800784860E08C401E0004000CE084D6
:10232000E3D12068C16821F08001C1602068C168E4
:1023300041F04001C160D8E7206A0088C0F308007E
:102340004860206A801C2062E5E74006CDD5500633
:10235000CBD5CA68204622F04002CA6084F83D30DE
:1023600000F007F9C1E70000AB3B000870B50400BE
:1023700004D094F83D00002510B106E0012070BDA6
:1023800084F83C50204600F023F8242084F83D00D7
:102390002068C16821F40051C160204601F016FD9B
:1023A0002068016921F4904101612068416921F0B0
:1023B0002A0141612068C16841F40051C16025646F
:1023C000202084F83D0084F83E00002070BD00000D
:1023D00070B586B0064614216846FDF7DCFF244937
:1023E0003068884242D123480025016841F020012D
:1023F0000160006800F0200005901E481438016854
:1024000041F0040101600068694600F00400059095
:10241000C02000900220CDE9010503200390082090
:1024200004901548FEF76AFA154C144820608005A0
:10243000C4E901054FF48060C4E903508010656170
:10244000C4E906504FF44030C4E908052046FEF7C1
:10245000A1F908B1FEF771F8B463002211464720D4
:10246000A663FEF7CBFD4720FEF7BAFD06B070BDB0
:102470000014014044380240000802402864024031
:10248000F413002090F83E30202B0ED159B152B1F8
:1024900090F83C30012B08D0012380F83C30002319
:1024A000036301F019BD012070470220704700004E
:1024B000014804F09DBC0000700F00207047000030
:1024C0002DE9F843044690F83D001F4616460D4698
:1024D00020284CD1C5B1BEB194F83C00012846D0AB
:1024E000012084F83C004FF00008C4F8408021200F
:1024F00084F83D00FEF704FBA6848146E684A068CC
:10250000B0F5805F03D004E00120BDE8F8832069C6
:1025100028B12E465FF0000584F83C800EE00026CE
:10252000FAE78021204601F021FDA0B9AEB116F8EE
:10253000010B21684860E08C401EE084E08C4B4633
:102540004FF0000200970028EBD14FF040012046E9
:1025500001F00CFD30B10320D7E735F8020BC0F3D2
:102560000800E6E7202084F83D000020CDE70220A7
:10257000CBE77047FEE701684A69D24352050FD4A2
:102580006FF480624A61002140F8301F20224273BC
:102590008173026942F004020261017301207047F5
:1025A000002070472DE9F84F0446006889460B9DCE
:1025B00001689846174641F480610160206801680F
:1025C00041F48071016000954FF0011B00225946D3
:1025D00020460A9B00F064F84FF4007A40B120686E
:1025E0000068C00501D5C4F840A00320BDE8F88FFD
:1025F000216809F0FE0008612B46284920460A9A06
:1026000000F082F8F0BB20684169806900902A469A
:1026100020460A9900F0F6F840B1206C04283AD11F
:102620002068016841F40071016034E0FEB2B8F145
:10263000010F09D02168380A08612A4620460A9904
:1026400000F0E0F80028E8D1206806612A4620461C
:102650000A9900F0D7F80028DFD12068016841F41A
:102660008071016000950022594620460A9B00F0C7
:1026700017F80028B3D1216809F0FF0040F00100ED
:10268000086100E007E02B46044920460A9A00F062
:102690003BF80028AAD00120A8E7000002000100B2
:1026A0002DE9F0471E4690460D460446C1F3074704
:1026B000DDF8209008E0701C06D0FEF721FAA0EBB0
:1026C0000900B0420FD876B12068012F18D0806978
:1026D00025EA00000004000C14D000214145EAD096
:1026E0000020BDE8F087002044F8300F20216173FE
:1026F000A073216941F02001216120730120F0E7DE
:102700004069E5E70121E9E72DE9F0479A4691465E
:102710000E46044600254FF02008C1F3074725E088
:1027200020684069C043400514D42068016841F422
:102730000071016021686FF480604861256384F84E
:102740003D8084F83E50206C40F00400206484F802
:102750003C501FE0B9F1FF3F08D0FEF7D1F9A0EBE4
:102760000A0149450CD8B9F1000F09D02068012FA2
:1027700013D0806926EA00000004000C0BD0CFE7DC
:1027800044F8305F84F80D80A573206940F0200084
:10279000206125730120BDE8F0874069EAE72DE953
:1027A000F041002590460E460446202717E0406978
:1027B000C043C0060CD454F8301B6FF010004861C1
:1027C00044F810596777A577206A2062257717E0CB
:1027D000FEF796F9A0EB0800B04208D83EB1206899
:1027E0004169C9434906E2D40020BDE8F08144F8BC
:1027F000305F6773A573206940F020002061257366
:102800000120F2E770B516460D4604460DE020465D
:10281000FFF7B1FE08B1012070BD681C05D0FEF7BE
:102820006FF9801BA84207D835B120684069C043C2
:102830000006ECD4002070BD002044F8300F2021A9
:102840006173A073216941F0200121612073E2E7E7
:1028500070B504462DED108B82B0B0EE429AF0EECA
:10286000629AB0EE40FAF0EE60FA90ED08EB51ECAF
:10287000110B53EC1E2B08F0B1FC41EC100B51EC8A
:10288000190B53EC102B08F09DFA94ED061B53EC3A
:10289000112B07F083FF94ED10DB41EC1A0B53EC86
:1028A0001D2B51EC190B08F08DFA0E4646EC100B5F
:1028B00094ED0CCB054653EC1C2B51EC100B08F09F
:1028C0008DFC94ED0EBB53EC1B2B08F087FC94EDB4
:1028D000001B53EC112B07F061FF53EC192B08F090
:1028E00071FA94ED0A1B53EC112B07F057FF46ECDD
:1028F000105B41EC180B53EC1C2B51EC100B08F047
:1029000095FB46EC105B41EC1C0B53EC1B2B51EC84
:10291000100B08F08BFB94ED020B41EC1B0B53ECFE
:10292000192B51EC100B08F04DFA53EC1D2B07F04E
:1029300035FF41EC100B51EC180B8DED000B94EDB5
:10294000040B53EC102B07F029FF41EC190B51EC51
:10295000180B53EC192B07F0DDFF41EC1D0B53EC6A
:10296000192B51EC1B0B07F0D5FF41EC190B53EC65
:102970001A2B51EC1F0B08F031FC41EC1F0B51ECF2
:102980001D0B53EC1F2B08F01DFA53EC1A2B07F00C
:1029900005FF41EC1A0B53EC1F2B84ED06AB51ECF9
:1029A000190B08F00FFA53EC1E2B07F0F7FEC4E9E1
:1029B000080153EC182B51EC1D0B08F003FA53ECF3
:1029C000182B08F033FBC4E90A0153EC1C2B51EC23
:1029D0001D0B08F0F7F953EC1C2B08F027FBC4E99A
:1029E0000C0153EC182B51EC190B08F0EBF953ECDC
:1029F0001B2B08F01BFBC4E90E0153EC1C2B51EC04
:102A0000190B08F0DFF99DED000B53EC102B08F0CB
:102A10000DFBC4E9100102B0B0EE4A0AF0EE6A0AFA
:102A2000BDEC108B70BD00002DE9F04F0C462DED74
:102A3000108B83B09FEDFA9B9FEDFB8B9FEDFCCB42
:102A40009FEDFDBBFE4EFF4D152271680095CDE94F
:102A5000012101233B22D021FEF71CF9288840BA2E
:102A600007B22780688840BA00B260808146A88893
:102A700040BA00B2A0808046288940BA00B2E08007
:102A80008246688940BA00B220818346A88940BA4C
:102A900000B260810090E88908F044F9C4E91801A7
:102AA000288A08F03FF9C4E91A01688A08F03AF95F
:102AB000C4E91C01384608F01EF99FEDE3AB53EC66
:102AC0001A2B08F07FF9C4E90601484608F013F90B
:102AD00053EC1A2B08F076F941EC1F0B404684EDBD
:102AE00008FB08F008F953EC1A2B08F06BF941ECDD
:102AF0001E0B504684ED0AEB08F0FDF894ED121B16
:102B000053EC112B08F06AFB9FEDD1AB53EC1A2B61
:102B100007F000FF9FEDD0DB53EC1D2B08F052F9BE
:102B2000C4E90C01584608F0E6F894ED141B53EC88
:102B3000112B08F053FB53EC1A2B07F0EBFE53EC70
:102B40001D2B08F03FF9C4E90E01009808F0D3F8F6
:102B500094ED161B53EC112B08F040FB53EC1A2B91
:102B600007F0D8FE53EC1D2B08F02CF9B0EE4E1AEE
:102B7000F0EE6E1AB0EE4F0AF0EE6F0AC4E91001E3
:102B800001F07AFD53EC182B51EC100B08F01AF9F8
:102B900094ED0C1B53EC112B07F000FEC4E90C0163
:102BA00094ED0A0B9FEDAEABB0EE4A1AF0EE6A1A46
:102BB00001F06EFEB0EE40DAF0EE60DA94ED080B54
:102BC000B0EE4A1AF0EE6A1A01F062FEB0EE401A58
:102BD000F0EE601A53EC1D2B51EC110B07F0DEFDEB
:102BE00041EC100B02F07CFCB0EE401AF0EE601AE3
:102BF00094ED060B01F040FD53EC182B51EC100B3B
:102C000008F0E0F894ED0E1B53EC112B08F00EFACF
:102C1000C4E90E0194ED0A0BB0EE4A1AF0EE6A1AFE
:102C200001F036FEB0EE40DAF0EE60DA94ED060B1D
:102C3000B0EE4A1AF0EE6A1A01F02AFEB0EE401A1F
:102C4000F0EE601A53EC1D2B51EC110B07F0A6FDB2
:102C500041EC100B02F044FCB0EE401AF0EE601AAA
:102C600094ED0A0B01F008FD53EC182B51EC100BFE
:102C700008F0A8F894ED101B53EC112B07F08EFD13
:102C80003546C4E910012878803808F034F89FED03
:102C900076AB53EC1A2B08F095F89FED75DB53ECEF
:102CA0001D2B07F07BFD94ED181B53EC112B08F046
:102CB00089F807F0C3FF00B208F01DF8C4E91E014F
:102CC0006878803808F017F853EC1A2B08F07AF877
:102CD00053EC1D2B07F062FD94ED1A1B53EC112BE6
:102CE00008F070F807F0AAFF00B208F004F8C4E991
:102CF0002001A878803807F0FEFF53EC1A2B08F06B
:102D000061F853EC1D2B07F049FD94ED1C1B53ECAF
:102D1000112B08F057F807F091FF00B207F0EBFF16
:102D2000C4E92201FDF7ECFEB168401A07F0FAFF92
:102D30009FED511B53EC112B07F0ECFD41EC1D0BEB
:102D4000FDF7DEFEB060208810FB00F1A08810FBCC
:102D5000001007F0D0FF41EC100B02F0C1FBB0EE09
:102D600040AAF0EE60AA53EC192B51EC1A0B07F0B5
:102D700029FF13D0B4F9020007F0BDFF53EC1A2B62
:102D800007F0C8FD41EC100B01F00AFB53EC182BC7
:102D900051EC100B08F016F841EC190BB4F90400D3
:102DA00007F0A9FF41EC1A0BB4F90000404207F00C
:102DB000A2FF41EC100BB0EE4A1AF0EE6A1A01F0D5
:102DC0005BFC53EC182B51EC100B07F0FBFF41ECB4
:102DD000180B53EC1C2B07F0B9FF08D294ED260B0F
:102DE00053EC1B2B51EC100B08F0EAF80FD353EC0B
:102DF0001B2B51EC180B08F0E3F841D294ED260B95
:102E000053EC1C2B51EC100B07F0A0FF38D20C48F0
:102E1000583080ED068B84ED268B94ED260B3EE03A
:102E20000000000000000000F8C1631ADCA54C405F
:102E300000000000008056C00000000000805640E6
:102E4000C802002064140020000000000000403F81
:102E500066666666666630407B14AE47E17A843FFC
:102E60000000000000000040000000000000703F73
:102E7000000000000000F03F0000000000408F4014
:102E800094ED0E1BB0EE4D2AF0EE6D2AB0EE480A1E
:102E9000F0EE680A1548FFF7DBFC84ED260B01F025
:102EA000EBFC53EC1B2B51EC100B08F089F807D20C
:102EB00094ED0C0B51EC100B07F063FCC4E90C0112
:102EC0000A4894ED0C1BB0EE4D2AF0EE6D2AB0EEE0
:102ED000490AF0EE690A4838FFF7BAFC84ED240B82
:102EE00003B0BDEC108BBDE8F08F00002003002084
:102EF000F0B587B014216846FDF74DFA314800243B
:102F0000016841F010010160016801F010010591B4
:102F1000016841F080010160016801F080010591C4
:102F2000016841F001010160016801F001010591B2
:102F3000016841F002010160016801F002010591A0
:102F4000016841F008010160016801F00801059184
:102F5000016841F00401016000681B4E00F00400AC
:102F60000590002204213046FDF7C5FD174F0022D1
:102F700018213846FDF7BFFD40F2051001258DE808
:102F8000310069461248FDF7B9FC0220CDE9000482
:102F9000694630460294FDF7B1FC04200090CDE96B
:102FA0000154694630460394FDF7A8FC1820CDE98A
:102FB000000569463846CDE90245FDF79FFC07B09C
:102FC000F0BD00003038024000040240000C024016
:102FD0000010024010B588B01C216846FDF7DBF9EF
:102FE0001548144900240160F021C0E9011440F2A1
:102FF000E731C0E903148461FEF7BCFB08B172B687
:10300000FEE70D48FEF7E7FF08B172B6FEE7602065
:10301000CDE9000402940022694607480494FEF7B3
:1030200074FF08B172B6FEE70348FEF717FE08B05A
:1030300010BD000000440140E811002010B588B028
:103040001C216846FDF7A7F91548144900240160C2
:10305000F021C0E9011440F2E731C0E903148461B2
:10306000FEF788FB08B172B6FEE70D48FEF7B3FF26
:1030700008B172B6FEE76020CDE900040294002298
:10308000694607480494FEF740FF08B172B6FEE7B0
:103090000348FEF7E3FD08B010BD00000048014002
:1030A0003012002010B58CB00024079408940994C5
:1030B0001C2168460A94FDF76EF91E481C49016000
:1030C0004FF4C861C0E9011440F2E731C0E90314CC
:1030D0008461FEF74FFB08B172B6FEE74FF48050F3
:1030E000079007A91348FEF797FC08B172B6FEE7F0
:1030F0001048FEF770FF08B172B6FEE76020CDE918
:1031000000040294002269460A480494FEF7FDFE7A
:1031100008B172B6FEE7042269460648FEF7F5FEDE
:1031200008B172B6FEE70348FEF798FD0CB010BD7B
:10313000001800407812002010B588B01C216846A5
:10314000FDF729F91548144900240160F021C0E970
:10315000011440F2E731C0E903148461FEF70AFB71
:1031600008B172B6FEE70D48FEF735FF08B172B63A
:10317000FEE76020CDE9000402940022694607487A
:103180000494FEF7C2FE08B172B6FEE70348FEF7EC
:1031900065FD08B010BD0000001C0040C0120020FA
:1031A00010B588B01C216846FDF7F5F8154814499C
:1031B0000024016040F2CE41C0E90114FF21C0E9C2
:1031C00003148461FEF7D6FA08B172B6FEE70D4823
:1031D000FEF701FF08B172B6FEE76020CDE90004FA
:1031E00002940022694607480494FEF78EFE08B157
:1031F00072B6FEE70348FEF731FD08B010BD0000CF
:10320000002000400813002010B596B000240F9451
:1032100010941194129413941C2168461494FDF791
:10322000BAF8202107A8FDF7B6F834483249016002
:10323000F021C0E9011440F2E731C0E90314446110
:103240008461FEF797FA08B172B6FEE74FF480503A
:103250000F900FA92948FEF7DFFB08B172B6FEE711
:103260002648FEF7B8FE08B172B6FEE7139413A91C
:1032700022481494FEF7D6F908B172B6FEE7602032
:10328000CDE9000402940394049405940022694655
:103290001A480694FEF739FE08B172B6FEE704221A
:1032A00069461648FEF731FE08B172B6FEE70822FD
:1032B00069461248FEF729FE08B172B6FEE70C22F5
:1032C00069460E48FEF721FE08B172B6FEE7079484
:1032D000089409944FF400500A94CDE90B4007A9D3
:1032E00006480E94FEF774F908B172B6FEE703487B
:1032F000FEF7B4FC16B010BD00000140F00F002036
:1033000010B58EB000240794089409940A940B9485
:103310001C2168460C94FDF73EF82A484FF0804186
:103320000160F021C0E9011440F2E731C0E9031463
:103330008461FEF71FFA08B172B6FEE74FF48050C1
:10334000079007A91F48FEF767FB08B172B6FEE7B2
:103350001C48FEF740FE08B172B6FEE70B940BA9BD
:1033600018480C94FEF75EF908B172B6FEE76020CB
:10337000CDE9000402940022694612480494FEF745
:10338000C4FD08B172B6FEE7042269460D48FEF797
:10339000BCFD08B172B6FEE7082269460948FEF78F
:1033A000B4FD08B172B6FEE70C2269460548FEF787
:1033B000ACFD08B172B6FEE70248FEF74FFC0EB056
:1033C00010BD00003810002010B58EB00024079406
:1033D000089409940A940B941C2168460C94FCF7F9
:1033E000DAFF264824490160F021C0E9011440F2C7
:1033F000E731C0E903148461FEF7BCF908B172B685
:10340000FEE74FF48050079007A91C48FEF704FB25
:1034100008B172B6FEE71948FEF7DDFD08B172B6D5
:10342000FEE70B940BA915480C94FEF7FBF808B1C6
:1034300072B6FEE76020CDE90004029400226946DE
:103440000E480494FEF761FD08B172B6FEE704224F
:1034500069460A48FEF759FD08B172B6FEE7082230
:1034600069460648FEF751FD08B172B6FEE703480B
:10347000FEF7F4FB0EB010BD0004004080100020E9
:1034800010B58EB000240794089409940A940B9404
:103490001C2168460C94FCF77EFF274825490160F3
:1034A0004FF48371C0E9011440F2E731C0E903141D
:1034B0008461FEF75FF908B172B6FEE74FF4805001
:1034C000079007A91C48FEF7A7FA08B172B6FEE7F5
:1034D0001948FEF780FD08B172B6FEE70B940BA900
:1034E00015480C94FEF79EF808B172B6FEE760200E
:1034F000CDE900040294002269460F480494FEF7C7
:1035000004FD08B172B6FEE7042269460A48FEF7D8
:10351000FCFC08B172B6FEE7082269460648FEF7D1
:10352000F4FC08B172B6FEE70348FEF797FB0EB055
:1035300010BD000000080040C810002010B58EB07B
:1035400000240794089409940A940B941C2168465B
:103550000C94FCF720FF224820490160F021C0E9CB
:10356000011440F2E731C0E903148461FEF702F967
:1035700008B172B6FEE74FF48050079007A91848CB
:10358000FEF74AFA08B172B6FEE71548FEF723FDCA
:1035900008B172B6FEE70B940BA911480C94FEF724
:1035A00041F808B172B6FEE76020CDE9000402944C
:1035B000002269460A480494FEF7A7FC08B172B6D7
:1035C000FEE7042269460648FEF79FFC08B172B682
:1035D000FEE70348FEF742FB0EB010BD000C0040B2
:1035E0001011002010B596B000240F94109411947F
:1035F000129413941C2108A81494FCF7CCFE2021EB
:103600006846FCF7C8FE284826490160F021C0E959
:10361000011440F2E731C0E9031444618461FEF70C
:10362000A9F808B172B6FEE74FF480500F900FA9C9
:103630001D48FEF7F1F908B172B6FEE71A48FEF729
:10364000CAFC08B172B6FEE7139413A91648149485
:10365000FDF7E8FF08B172B6FEE76020CDE9080487
:103660000A940B940C940D94042208A90E480E940D
:10367000FEF74BFC08B172B6FEE700944FF4005021
:10368000CDE90440029401940394694606480794E6
:10369000FDF79EFF08B172B6FEE70348FEF7DEFABB
:1036A00016B010BD000401405811002010B58CB0B8
:1036B00000240794089409941C2168460A94FCF796
:1036C0006AFE1A4818490160F021C0E9011440F26D
:1036D000E731C0E903148461FEF74CF808B172B613
:1036E000FEE74FF48050079007A91048FEF794F9C1
:1036F00008B172B6FEE70D48FEF76DFC08B172B670
:10370000FEE76020CDE900040294042269460748E0
:103710000494FEF7FAFB08B172B6FEE70348FEF721
:103720009DFA0CB010BD000000400140A011002027
:10373000FEE7FEE770477047FDF7F8BB30B593B082
:1037400030216846FCF727FE14210CA8FCF723FE65
:103750001C480025016841F080510160006800F0BC
:10376000805011901848016841F480410160006860
:10377000022400F480401190012003901020049056
:10378000009406940820CDE90750A020CDE9090453
:1037900004200B906846FDF74FFD08B172B6FEE7B6
:1037A0000CA90F2081E831004FF4A0500F90109029
:1037B00005210CA8FDF754FC002801D072B6FEE7E5
:1037C00013B030BD4038024000700040024801682C
:1037D00041F470010160704788ED00E010B50448C5
:1037E000FEF789F9BDE810400248FEF784B90000F1
:1037F000F00F0020A01100200148FEF77CB9000066
:10380000F00F002010B50448FEF775F9BDE8104030
:103810000248FEF770B90000F00F002030120020BF
:1038200010B50448FEF767F9BDE810400248FEF7FE
:1038300062B90000F00F0020E81100200148FEF7F7
:103840005AB90000801000200148FEF754B900006A
:10385000C81000200148FEF74EB9000010110020EA
:1038600010B50448FEF747F9BDE810400248FEF7DE
:1038700042B9000058110020781200200148FEF7DC
:103880003AB900005811002010B50448FEF733F98A
:10389000BDE810400248FEF72EB900005811002084
:1038A0000813002010B50448FEF725F9BDE81040C4
:1038B0000248FEF720B9000058110020C012002075
:1038C000F0B50268254C264D264E274F274B4FF06A
:1038D000804CA04209D0604507D0A84205D0B04234
:1038E00003D0B84201D0984204D122F0700E4A6849
:1038F00042EA0E02A0421BD0604519D0A84217D060
:10390000B04215D0B84213D0984211D0184DA842F9
:103910000ED0184DA8420BD0174DA84208D0174D15
:10392000A84205D0164DA84202D0164DA84203D198
:1039300022F44075CA682A434D6922F080022A4366
:1039400002608A68C2620A688262A04201D098421C
:1039500001D10969016301214161F0BD000001400D
:103960000004004000080040000C0040000401403A
:103970000040014000440140004801400018004060
:10398000001C00400020004010B501F01F03012181
:10399000046A99408C430462016A9A4011430162AF
:1039A00010BD10B501F01F030421046A99408C4337
:1039B0000462016A9A401143016210BD10B5846827
:1039C00042EA032224F47F440A432243826010BD6A
:1039D000826822F070020A4342F00701816070475A
:1039E000F0B5026A22F001020262036A4268846949
:1039F000124E24F073050C682C4323F002058B68EB
:103A00002B430D4DA84201D0B04205D123F0080749
:103A1000CB683B4323F00403A84201D0B04205D158
:103A20004D6922F4407215438A692A4342608461D9
:103A3000496841630362F0BD000001400004014099
:103A4000F0B5026A22F010020262026A43688469D9
:103A50000D6824F4E64444EA05248D6822F020022F
:103A600042EA05120F4D104EA84201D0B04206D1D5
:103A7000CF6822F0800242EA071222F04002A842F8
:103A800001D0B04207D14D6923F4406343EA850376
:103A90008D6943EA850343608461496881630262FA
:103AA000F0BD00000000014000040140F0B5026AD2
:103AB00022F480720262026A4368C46922F40072CE
:103AC00024F073050C68124E2C438D6842EA0522DF
:103AD0000E4DA84201D0B04206D1CF6822F4006258
:103AE00042EA072222F48062A84201D0B04207D104
:103AF0004D6923F4405343EA05138D6943EA0513E6
:103B00004360C4614968C1630262F0BD00000140C6
:103B10000004014030B5026A22F480520262046A55
:103B20004268C3690D6823F4E64343EA05238D68C0
:103B300024F4005444EA0534084DA84202D0084D4C
:103B4000A84204D14D6922F4804242EA85124260C3
:103B5000C36149680164046230BD00000000014097
:103B60000004014010B5036A046A24F001040462F1
:103B7000846924F0F00444EA021423F00A020A43A0
:103B80008461026210BD10B5036A23F01003036262
:103B90008369046A23F4704343EA023224F0A003E9
:103BA00043EA01118261016210BD10B5806B0021F2
:103BB000C185C184FEF7A5FA10BD70B5846B20687D
:103BC000406994F83D10C0F3C0100025212904D1AC
:103BD00018B1E584204600F08AF82068406994F81E
:103BE0003E10C0F38010222904D118B1E58520468B
:103BF00000F056F8206C40F0100020642046FEF7DC
:103C000080FA70BD10B50146806B09680968C90566
:103C10002FD40021C18501680C3151E8002F22F416
:103C2000807241E80023002BF5D10168143151E87E
:103C3000002F22F0010241E80023002BF5D101689A
:103C4000143151E8002F22F0400241E80023002BFC
:103C5000F5D1202180F83E10016B012909D10168BE
:103C60000C3151E8002F22F0100241E80023002B14
:103C7000F5D1016B012902D0FEF71AFC10BD818D30
:103C8000FEF73EFA10BD10B5806B016B012902D022
:103C9000FEF714FC10BD818D4908FEF731FA10BD06
:103CA00001680C3151E8002F22F4907241E80023A2
:103CB000002BF5D10168143151E8002F22F00102E8
:103CC00041E80023002BF5D1016B012909D10168DE
:103CD0000C3151E8002F22F0100241E80023002BA4
:103CE000F5D1202180F83E10002101637047016862
:103CF0000C3151E8002F22F0C00241E80023002BD4
:103D0000F5D1202180F83D10704708B590F83E109D
:103D1000222901D0022008BD82684FF480539A42C4
:103D200001D1016921B1816A9A421BD04AB10AE0EE
:103D30000268816A5268C2F308020A80816A891C9B
:103D400008E0026972B10268526802F07F020A70EC
:103D5000816A491C8162C18D491E0904090CC18513
:103D600003D019E002685268F1E70168CA6822F0DE
:103D70002002CA600168CA6822F48072CA600168C1
:103D80004A6922F001024A61202180F83E10016B4D
:103D9000012903D0FEF78CFB002008BD0021016340
:103DA00001680C3151E8002F22F0100241E8002395
:103DB000002BF5D101680A68D20602D50A68496865
:103DC0000091818DFEF79CF9E6E7000070B504468E
:103DD00000680169E26821F44051114301612169E1
:103DE000A068E26908436169114308432168CA6811
:103DF00049F20C639A430243CA6020684169A26990
:103E000021F440711143416131492068884202D058
:103E10003049884202D1FDF7CDF901E0FDF7BAF94A
:103E2000E2690023192164253226B2F5004F626849
:103E300028D0A0FB0101930F9200FCF735FA014650
:103E4000B0FBF5F06FF01802504301EB800006EB79
:103E50000010B0FBF5F000F0F002B1FBF5F002EB62
:103E60000012B1FBF5F06FF01803584301EB80002E
:103E700006EB0010B0FBF5F000F00F0021681044D5
:103E8000886070BDA0FB010192185B41FCF70CFA41
:103E90000146B0FBF5F00201B1FBF5F06FF018033D
:103EA000584301EB800006EBC000B0FBF5F000F0DA
:103EB000F80002EB4002B1FBF5F0584301EB800043
:103EC00006EBC000B0FBF5F000F00700D6E70000FD
:103ED000001001400014014038B581628285002540
:103EE000134604460564222084F83E00A26B1C4859
:103EF000D063A26B1B481064A26B1B48D064A06BFC
:103F00000A4605652168A06B091DFCF7ADFC206819
:103F100001684068009084F83C50206948B12068EE
:103F20000C3050E8001F41F4807140E80012002A74
:103F3000F5D12068143050E8001F41F0010140E83D
:103F40000012002AF5D12068143050E8001F41F01B
:103F5000400140E80012002AF5D1002038BD0000E1
:103F6000053C0008873C0008BB3B00082DE9F041F8
:103F7000984617460E460446069D27E0681C25D045
:103F80002DB1FCF7BDFDA0EB0800A8421ED92068AA
:103F90000C3050E8001F21F4D07140E80012002AD4
:103FA000F5D12068143050E8001F21F0010140E8ED
:103FB0000012002AF5D1202084F83D0084F83E004C
:103FC000002084F83C000320BDE8F08120680068F0
:103FD00036EA000004D00020B842CFD00020F3E73A
:103FE0000120F9E70148FEF78DB8000050130020CA
:103FF000FEE703B401984100009850EAC12018BFC1
:1040000004204A0D18BF40F0010040F2FF72B2EBED
:10401000515F08BF40F00200012808BF052002B030
:1040200070470907090E002804DB00F1E02080F842
:104030000014704700F00F0000F1E02080F8141D1C
:10404000704700000000000010B5B94A2DED020BCA
:104050002DED0C8B82B00F9921F000409FEDB6CB77
:1040600090422CDBA0F140530E9AA3F17F631A43D8
:104070000FD0B349884202DC16D10E98A0B19DED55
:104080000E0B02B0BDEC0C8B02B0BDE8104001F08D
:10409000FBBA0029C1BF9FEDAC0B02B0BDEC0C8B8D
:1040A00002B0C8BF10BD16E00120FCF7A3F902B0B2
:1040B000BDEC0C8B02B0BDE8104001F0F9BAA44A87
:1040C0009FEDA59B9FEDA6AB90425EDAA6499FEDC2
:1040D000A8CB814208DBB0EE4C0AF0EE6C0A02B0CD
:1040E000BDEC0C8B02B010BD9DED0E0B53EC102BF4
:1040F00051EC100B06F066FE41EC180B9E480621B1
:10410000B0EE480AF0EE680A784401F026FA53EC63
:10411000182B51EC100B06F055FE41EC1B0B974889
:10412000B0EE480AF0EE680A0421784401F015FA6E
:1041300053EC182B51EC100B06F044FE53EC192BEA
:1041400006F02CFB41EC100B51EC1B0B53EC102B2D
:1041500006F0E0FB41EC100B53EC102B9DED0E0B29
:1041600051EC100B06F02EFE53EC1A2B06F05EFFFE
:104170009DED0E1B53EC112B06F058FF53EC1C2B3E
:1041800006F054FF41EC100BA9E79FED7D8B9FEDEE
:104190007EBB9DED0E0B002953EC192B51EC100B3F
:1041A00052DA06F0FBFA53EC182B06F00BFE41EC4A
:1041B000180B77480621B0EE480AF0EE680A7844FA
:1041C00001F0CBF953EC182B51EC100B06F0FAFD73
:1041D00041EC1D0B6F48B0EE480AF0EE680A04216E
:1041E000784401F0BAF953EC182B51EC100B06F09F
:1041F000E9FD53EC192B06F0D1FA41EC190B51EC07
:10420000180B03F00EFB41EC180B53EC192B51EC7F
:104210001D0B06F07FFB53EC182B06F0D3FD53EC7F
:104220001A2B06F0DBFF41EC100B51EC180B53EC92
:10423000102B06F0B3FA53EC1B2B06F0C3FD53EC26
:104240001C2B06F0F3FE6DE006F0F0FE53EC182B8D
:1042500006F0B8FD41EC180B03F0E3FA41EC1A0B41
:1042600000208DED00AB00909DED000B51EC1A0B82
:1042700053EC102B06F092FA9DED000B41EC1C0B59
:1042800053EC102B51EC100B06F09CFD53EC182B4B
:1042900006F0CCFE53EC1C2B06F03CFB41EC1C0B57
:1042A0003D48B0EE480AF0EE680A0621784401F075
:1042B00054F953EC182B51EC100B06F083FD41EC34
:1042C0001D0B3648B0EE480AF0EE680A0421784427
:1042D00001F043F953EC182B51EC100B06F072FD72
:1042E00053EC192B06F05AFA41EC100B51EC1D0B54
:1042F00053EC102B06F00EFB53EC1A2B06F062FD6C
:1043000053EC1C2B06F04AFA41EC100B53EC102B2B
:104310009DED000B51EC100B06F040FA53EC1B2BFB
:1043200006F050FD41EC100BD9E600000000000043
:104330000000F03F00000000182D4454FB2109400C
:104340000000F07F000000000000000000000000FE
:104350000000E03F00000000000000000000F03F0F
:10436000075C143326A6913C0000603C000000006E
:10437000182D4454FB21F93FC4730000D273000090
:10438000000000000000E03F0000000000000040CE
:104390000E7300001C730000207200002E720000DB
:1043A00070B59B482DED020B2DED068B079D25F07A
:1043B0000044A04218DC9748844202DC0AD10698E7
:1043C00040B19DED060BBDEC068B02B0BDE8704020
:1043D00001F05AB9002DCCBF9FED8F0B9FED900BD4
:1043E000BDEC068B02B070BD8F48A04215DD8F4832
:1043F000A042D8BF4FF0FF3458DD9DED060B51ECC5
:10440000100BFFF7F6FD042808BF01F071F99DEDD0
:10441000060BBDEC068B02B070BD9DED060B51EC9A
:10442000100B01F09FFCCDE9060181489FED828BC6
:10443000A0423CDD8248A0421FDD00249FED82ABFC
:104440009DED060B53EC1A2B51EC100B06F0A6F960
:104450009DED060B41EC190B53EC1A2B51EC100B94
:1044600006F0B0FC53EC182B06F0B8FE53EC192BF9
:1044700006F050FACDE9060149E09DED060B012456
:1044800053EC182B51EC100B06F088F99DED060B40
:1044900041EC190B53EC182B51EC100B06F09EFE5F
:1044A00053EC192B06F036FACDE906012FE06848E7
:1044B000A0421FDD02249FED689B9DED060B53EC8F
:1044C000192B51EC100B06F07DFC53EC182B06F069
:1044D00065F99DED060B41EC180B53EC192B51ECD3
:1044E000100B06F07BFE53EC182B06F013FACDE907
:1044F00006010CE09DED060B032453EC102B9FED01
:10450000580B51EC100B06F005FACDE906019DEDB4
:10451000060B53EC102B51EC100B06F053FC41EC46
:10452000180B53EC182B06F04DFC41EC190B4E48C0
:104530000621B0EE490AF0EE690A784401F00DF860
:1045400053EC182B51EC100B06F03CFC41EC180B13
:104550004648B0EE490AF0EE690A0521784400F0B9
:10456000FCFF53EC192B51EC100B06F02BFC41EC2B
:10457000100B51EC180B53EC102B002C0EDA06F03C
:104580000DF99DED061B53EC112B06F01BFC9DED68
:10459000061B53EC112B06F049FD35E006F0FEF842
:1045A0009DED061B53EC112B06F00CFC41EC100B9F
:1045B0002F48784400EBC40090ED001B51EC100B29
:1045C00053EC112B06F00AFE9DED061B53EC112B4C
:1045D00006F004FE41EC100B2648784400EBC400C2
:1045E00090ED001B51EC100B53EC112B06F01EFD4F
:1045F00041EC100B002DA2BFBDEC068B02B070BDCC
:1046000051EC100B06F0BDF841EC100B01E7000077
:10461000000010440000F07F182D4454FB21F93FA6
:10462000182D4454FB21F9BF0000DC3F0000203E60
:104630000000F33F00000000000000000000F03F19
:104640000000E63F00000000000000000000004005
:104650000080034000000000000000000000F83F60
:10466000000000000000F0BF4A7000000070000071
:104670008A6F0000426F000070B56F4E2DED040B85
:104680002DED048B82B0DDF824C0DDE907235C4208
:104690002CF000411C4341EAD474069D22F00040F6
:1046A000B44205D86C422C4340EAD474B4420BD9CE
:1046B0009DED081B9DED060B02B0BDEC048B04B014
:1046C000BDE8704000F0EABFACF14054A4F17F6453
:1046D0001C430BD0022404EAAC7444EAD2740543B0
:1046E0009FED578B9FED582B07D015E09DED060BE6
:1046F00051EC100B01F00CF842E0002C11BF012C22
:104700009DED060B02B0BDEC048B04BF04B070BD80
:10471000022C38D0032C3BD00B439FED4D1B9FED5B
:104720004E0B0AD0B14218D1B04209D121F08041DC
:1047300020F08040099107900FE0002A15DA10E080
:10474000474B7B44002C08BF93ED000B0DD0012C90
:1047500010D0022C17D0032C1AD0B0421DD1002A41
:1047600003DAB0EE410AF0EE610A02B0BDEC048B50
:1047700004B070BD93ED000B51EC100B06F001F886
:1047800041EC100BF1E7B0EE480AF0EE680AECE7F6
:10479000B0EE420AF0EE620AE7E7401A00159FED1C
:1047A000329B3C28C8BF8DED000B17DCBCF1000F1D
:1047B000BCBF10F13C0F8DED009B0FDB9DED080B96
:1047C00053EC102B9DED060B51EC100B06F0A2F8EC
:1047D00001F0C8FA00F09CFFCDE90001B4B1012C52
:1047E00010D0022C9FED220B53EC102B9DED000BF3
:1047F00051EC100B19D006F0F1FC53EC182B06F01D
:10480000EDFCBDE7019880F0004001909DED000BAC
:1048100053EC192B51EC100B06F0D4F904BF022015
:10482000FBF7E8FD9DED000B9FE706F0D7FC53EC8E
:10483000182B06F0FBFBA3E70000F07F0000000050
:10484000182D4454FB210940182D4454FB2109C064
:10485000182D4454FB21F9BF182D4454FB21F93F76
:10486000FA6E0000000000000000000000000000E0
:10487000075C143326A6A13C2DED020B019820F015
:10488000004001909DED000B02B070470000000059
:104890002DE9F04D2DED040B2DED0E8B96B0DDE9DD
:1048A0002550279CDDF890A025F0004624F0004814
:1048B000BAF1000F14BF0121002101EB4502FC49B0
:1048C00053184A1093422AD3002814BF012300230F
:1048D00003EB44030B44F7498B4220D358EA000111
:1048E0009FEDF59B76D0DFF8D8B35D4503D1BAF1E3
:1048F000000F05D188E0BAF1000F08BF002100D0F9
:10490000012101EB450111F5001F08D8002814BF53
:104910000121002101EB440111F5001F0BD99DED90
:10492000261B9DED240B16B0BDEC0E8B04B0BDE82C
:10493000F04D00F0B3BE0027002DBCBFE149884513
:1049400021DAE1498845A8BF02271CDAC3451ADCF1
:10495000DE4901EB2851142908DDC1F1340220FAA7
:1049600002F101FA02F282420DD108E058B9C1F118
:10497000140228FA02F101FA02F2424503D101F0D1
:104980000101C1F1020756EA0A0124D1002C22DA02
:10499000002D18BF022F01D0012F0AD00220FBF7F3
:1049A00029FD16B0BDEC0E8B04B0BDE8F04D00F053
:1049B00053BE0220FBF71EFD00F04EFE51EC100B23
:1049C00005F0DFFE41EC100B16B0BDEC0E8B04B011
:1049D000BDE8F08D18E09FEDBEAB9FEDBF8B0028CA
:1049E00071D1B848804522D105F1804010F5801082
:1049F00008BFBAF1000F07D0B3450ADC002CA8BFEE
:104A00009DED260BE0DA0DE0B0EE490AF0EE690A02
:104A1000DAE7002C06DA9DED260B51EC100B05F0C1
:104A2000B0FE6FE0AE48784490ED000BCCE7D8457F
:104A30004DD1002C48DA2EB186423AD1BAF1000F9E
:104A400042D126E0BAF1000F13D00220FBF7D2FCCE
:104A500000F03EFE8DED020B9DED240B8DED000B65
:104A600010EE900A039961F31E0003909DED020B76
:104A7000AAE78DED02AB9DED240B1AEE901A10EE15
:104A8000900A8DED000B61F31E0003909DED020B6B
:104A90009AE78DED028B9DED240B18EE901A10EE27
:104AA000900A8DED000B61F31E0003909DED020B4B
:104AB0008AE709DA9DED240B51EC190B53EC102B0E
:104AC00005F028FF1EE020E09DED240B7CE78642E8
:104AD0001BDAB4F1804F0DD0A4F10050B0F1FF50BB
:104AE00013D1002D11DB9DED240B51EC100B02F0C6
:104AF00098FE07E09DED240B53EC102B51EC100BAE
:104B000000F0C2BC41EC100B5EE79DED240B51ECB4
:104B1000100B01F027F9BAF1000FCDE90E0142D1D7
:104B20009FED710B46B3A6F1E040B0F17F600CD071
:104B30005E4538D1002D00DAA7B3022F0CBF01204B
:104B40004FF0FF3006F0D7F8DCE7002D01DD002C38
:104B50000DDA002D01DD002C1FDB002D16DA002CF4
:104B600014DB012F08BF9FED620B3FF42DAFB0EEB9
:104B70004A0AF0EE6A0A27E7022F18BF002D0CD070
:104B8000012F0AD1002DFFF61FAF06E0002DB8BFA0
:104B9000002C08DA012F3FF417AFB0EE480AF0EE10
:104BA000680A11E71BE0012000EBE57050EA0701FD
:104BB00015D0791EB0EE498AF0EE698A084308BF25
:104BC0009FED4D8B4E480025804570DD4D494E4888
:104BD000884514DDB0420DDB002C19DB2FE00120ED
:104BE000FBF708FC16B0BDEC0E8B04B0BDE8F04D31
:104BF00000F05EBDB34502DC002C09DC1FE08642FC
:104C000002DA002C1BDA03E05E452BDD002C16DDFA
:104C10000220FBF7EFFB00F05BFD8DED020B53EC88
:104C20001A2B51EC180B06F0CDF8CDE900010399D1
:104C3000019861F31E0003909DED020BC4E6022073
:104C4000FBF7D8FB00F054FD10EE901A18EE900A16
:104C50008DED020B8DED008B61F31E0003909DED39
:104C6000020BB1E69DED0E0B53EC192B51EC100B22
:104C700006F0B4FA9FED260BCDE9080153EC102B9A
:104C80009DED080B51EC100B06F09CF89FED221BDC
:104C900053EC112B06F0CAF99DED081B53EC112BB8
:104CA00006F090F89FED1E1B53EC112B3CE08CE0BE
:104CB000FFFF1F00FFFF0F00000000000000F03F9B
:104CC0000000F03F0000F07F0000404301FCFFFFC8
:104CD000000000000000F07F000000000000000065
:104CE000166C0000000000000000000000000080C2
:104CF000000000000000F0FF000000000000F0BF16
:104D00000000E0410000F043FFFFEF3F0000000023
:104D1000000000000000D03F555555555555D53F72
:104D2000000000000000E03F06F080F99DED080B58
:104D300041EC1A0B53EC102B51EC100B06F042F81F
:104D400053EC1A2B06F03EF841EC1A0B9FEDFE0BCC
:104D500053EC102B9DED080B51EC100B06F032F8C4
:104D600041EC1B0B9FEDFA0B51EC1A0B53EC102B83
:104D700006F028F841EC1A0B9FEDF70B53EC102BC3
:104D80009DED080B51EC100B06F01CF853EC1A2BA0
:104D900006F024FA41EC1A0B51EC1B0B53EC1A2BC6
:104DA00005F0FCFC0690CDE906519DED060B53EC99
:104DB0001B2B51EC100B06F011FA53EC1A2B06F0DA
:104DC00035F941EC100B00F0A1B90020B6F5801FB9
:104DD0000EDA9FEDE30B53EC102B9DED0E0B51EC17
:104DE000100B05F0EFFFCDE90E016FF034000E4619
:104DF00000EB2650A0F2FF37C6F31300DA4940F06B
:104E00007F6646F040568842D8BF002408DDD74967
:104E10008142C8BF012403DC0024A6F580167F1C54
:104E2000D348784400EBC4000F9690ED00CB9DED85
:104E30000E0B53EC1C2B51EC100B06F0CFF99DED33
:104E40000E0B41EC1B0B53EC1C2B51EC100B05F023
:104E5000A5FC41EC100B51EC190B53EC102B05F099
:104E600059FD41EC1D0B51EC1B0B53EC1D2B05F0B8
:104E7000A9FF41EC1A0BBF488DED10AB784410959B
:104E800090ED000B4FF0005040EA660000EB8440CC
:104E90008DED080B00F5002009909DED080B53ECFB
:104EA0001C2B51EC100B06F099F99DED0E1B53ECE9
:104EB000112B06F0BBF841EC100B53EC102B9DEDC1
:104EC000100B51EC100B05F07DFF9DED080B41EC34
:104ED0001C0B53EC102B9DED100B51EC100B05F03F
:104EE00071FF53EC1B2B06F0A1F853EC1C2B06F0C2
:104EF00075F953EC1D2B05F065FF41EC1C0B53ECD1
:104F00001A2B51EC1A0B05F05DFF41EC1B0B9A4874
:104F10000621B0EE4B0AF0EE6B0A784400F01DFB60
:104F2000B0EE401AF0EE601AB0EE41DAF0EE61DA5F
:104F300053EC1B2B51EC1B0B05F044FF53EC1D2BCA
:104F400005F040FF9DED100B41EC1B0B53EC1A2BB1
:104F500051EC100B05F022FC53EC1C2B05F032FF3A
:104F600053EC1B2B05F01AFC9DED100B41EC1B0BB9
:104F700053EC102B51EC100B05F024FF41EC1D0BF2
:104F80009FED7FEB53EC1E2B05F008FC53EC1B2B25
:104F900005F004FC0890CDE908519DED080B53EC99
:104FA0001E2B51EC100B06F019F953EC1D2B06F0DB
:104FB00015F953EC1B2B06F039F89DED080B41EC6D
:104FC0001D0B53EC102B9DED100B51EC100B05F04D
:104FD000F9FE41EC1B0B53EC1A2B51EC1D0B05F0A9
:104FE000F1FE9DED080B41EC1A0B53EC102B51EC2C
:104FF0001C0B05F0E7FE53EC1A2B05F0CFFB41EC40
:105000001A0B51EC1B0B53EC1A2B05F0C7FB0C9041
:10501000CDE90C519DED0C0B53EC1B2B51EC100BFF
:1050200006F0DCF853EC1A2B06F000F841EC1B0BF1
:105030009FED550B53EC102B9DED0C0B51EC100B11
:1050400005F0C0FE41EC1A0B9FED510B51EC1B0B10
:1050500053EC102B05F0B6FE41EC1B0B9FED4E0BF5
:1050600053EC102B9DED0C0B51EC100B05F0AAFE30
:1050700053EC1B2B05F092FB41EC100B4848784495
:1050800000EBC40090ED001B51EC100B53EC112B06
:1050900005F084FB41EC1B0B384605F02CFECDE9F6
:1050A000080153EC1B2B51EC1A0B05F077FB41EC7C
:1050B000100B3C48784400EBC40090ED00CB51EC61
:1050C000100B53EC1C2B05F069FB9DED081B53ECFA
:1050D000112B05F063FB0690CDE906519DED080B01
:1050E00053EC102B9DED060B51EC100B06F076F8EF
:1050F00053EC1C2B06F072F853EC1A2B06F06EF8EA
:1051000053EC1B2B05F092FF41EC100B9DED261B81
:1051100053EC102B8DED001B00959DED260B51ECF3
:10512000100B05F04FFE9DED000B41EC1A0B53ECFC
:10513000102B9DED260B51EC100B06F04FF89DED5A
:10514000061B53EC112B2FE0000000604715F73FC2
:10515000FE822B654715F73F44DF5DF80BAE543EEA
:1051600000000000000040438E9803007AB60B0058
:1051700092670000C0670000CA66000000000000DF
:105180000000000000000840000000E009C7EE3FFA
:10519000FD033ADC09C7EE3FF5015B14E02F3EBE8C
:1051A000566500001065000005F00CFE53EC1A2B4C
:1051B00005F0F4FA9DED060B41EC1A0B53EC102BA5
:1051C0009DED000B51EC100B05F0FCFDCDE90C0141
:1051D0009DED0C0B51EC1A0B53EC102B05F0DEFA85
:1051E000CDE902010C46AA498C422FDB611A084323
:1051F00018D19DED0C0B53EC102B9DED020B51ECD7
:10520000100B05F0EBFF41EC1B0B9FEDA30B51ECDA
:105210001A0B53EC102B05F0C1FA53EC1B2B05F0C5
:10522000CFFE2DD20220FBF7E5F800F051FA10EE88
:10523000901A18EE900A8DED020B8DED008B61F344
:105240001E0003909DED020BFFF7BEBB944A24F0B5
:105250000041914214D39349214408437FF4EFACB9
:105260009DED0C0B53EC102B9DED020B51EC100B34
:1052700005F0B4FF53EC1A2B05F0A2FE7FF6DFAC6D
:1052800024F000408849894A002601EB20518242DF
:105290002BDA481C4FF4801121FA00F02044844A94
:1052A000C0F30A517A44A1F2FF3192ED000B814A1A
:1052B0008DED080BCA4020EA0202C0F3130040F44F
:1052C0008010C1F1140120FA01F60992002CB8BF38
:1052D00076429DED080B53EC102B9DED0C0B51EC21
:1052E000100B05F07BFFCDE90C019DED0C0B51EC93
:1052F0001A0B53EC102B05F051FA9FED6F0B089031
:10530000CDE9085153EC102B9DED080B51EC100B1F
:1053100005F058FD41EC1B0B9FED690B53EC102B76
:105320009DED080B51EC100B05F04CFD9DED0C0BA9
:1053300041EC1C0B53EC102B9DED080B51EC100BAA
:1053400005F04CFF53EC1A2B05F070FE9FED5E1B31
:1053500053EC112B05F036FD53EC1C2B05F01EFA17
:1053600041EC1A0B51EC1B0B53EC1A2B05F016FAFF
:10537000CDE902019DED020B53EC1B2B51EC100B00
:1053800005F02CFF53EC1A2B05F050FE9DED020B9F
:1053900041EC1A0B53EC102B51EC100B05F012FDE5
:1053A000CDE908014A489DED080B0521784400F03D
:1053B000D4F89DED081B51EC100B53EC112B05F0AC
:1053C00001FD9DED021B53EC112B05F02FFECDE9E5
:1053D00006019DED020B53EC1A2B51EC100B05F05E
:1053E000F1FC53EC1A2B05F0D9F99FED3B0B41EC86
:1053F0001A0B53EC102B9DED060B51EC100B05F026
:10540000EDFE9DED060B41EC1B0B53EC102B9DEDBF
:10541000020B51EC100B05F0D5FC53EC1B2B05F0E7
:1054200079FA53EC1A2B05F0D9FE9DED021B53ECD3
:10543000112B05F0D3FE53EC192B05F0F7FDCDE948
:10544000020101EB065001150029C8BF039015DCCD
:105450009DED020B324651EC100B05F0E0FFFEF71C
:10546000C8FD042808BF00F043F932469DED020B49
:1054700051EC100B05F0D3FFCDE902019DED020BBD
:1054800051EC180B53EC102B05F09CFCFFF73ABBCA
:105490000000904000000000FE822B654715973CFD
:1054A00000CC904000346F3F01FCFFFF0000E03F64
:1054B00098630000FFFF0F0000000000432EE63F4E
:1054C000396CA80C615C20BEEF39FAFE422EE63F33
:1054D00068620000000000000000000000000040C2
:1054E00000B52DED048BB0EE409AF0EE609A83B0DB
:1054F00051EC190B05F0A6FD41EC180B18EE100A43
:1055000018EE901A8DED008B002818BF012008437B
:1055100020F00040C0F17F6000F1E040C00F14D0E7
:1055200019EE101A19EE900A8DED009B002918BF94
:105530000121084320F00040C0F17F6000F1E0400D
:10554000C00F04BF0120FAF755FFB0EE480A03B0C0
:10555000F0EE680ABDEC048B00BD70B504462DED7D
:10556000028B4D1E00EBC500B0EE408AF0EE608A63
:1055700090ED000B35F0060017D053EC182B51ECD2
:10558000100B05F01FFC41EC100B6D1E04EBC50069
:1055900090ED001B51EC100B53EC112B05F0FEF8B5
:1055A00041EC100B35F00600E7D1022D36D0042D6A
:1055B0001CD0062D1CBFBDEC028B70BD53EC182B0C
:1055C00051EC100B05F0FEFB94ED0A1B53EC112B74
:1055D00005F0E4F853EC182B05F0F4FB94ED081BF0
:1055E00053EC112B05F0DAF841EC100B53EC182BAF
:1055F00051EC100B05F0E6FB94ED061B53EC112B60
:1056000005F0CCF853EC182B05F0DCFB94ED040B03
:1056100053EC102B05F0C2F841EC100B53EC182B97
:1056200051EC100B05F0CEFB94ED021B53EC112B4B
:1056300005F0B4F853EC182B05F0C4FB94ED001BF7
:1056400053EC112B05F0AAF8BDEC028B41EC100BCA
:1056500070BD0000000000009FED070B10B553EC7B
:10566000102B9FED070B51EC100B05F053F941EC9B
:10567000100B10BD00000000000000000000000042
:10568000000000000000F03F10B553EC102B51EC6F
:10569000100B05F083F841EC100B10BD10B553EC66
:1056A000112B51EC100B05F079F841EC100B10BDEB
:1056B0009FED050B10B553EC102B51EC100B05F0C2
:1056C00029F941EC100B10BD0000000000000000A3
:1056D0009FED050B10B553EC102B51EC100B05F0A2
:1056E00071FB41EC100B10BD0000000000000070C9
:1056F0009FED050B10B553EC102B51EC100B05F082
:1057000061FB41EC100B10BD000000000000001018
:1057100010B541EC100BFEF743FE51EC100B10BD21
:105720002DE9F05FFF4E2DED048B06F1900896ED0C
:10573000000B98ED001B53EC102B51EC110B05F0F6
:105740002DF841EC180B06F54C70A0F5587980ED5A
:10575000008BA0F5347A99ED001B9AED002B53ECE9
:10576000112B51EC120B05F019F806F53474A4F561
:10577000287BC4E90001A4F504709BED002B90ED9B
:10578000001B53EC122B51EC110B05F007F804F140
:1057900090059FEDE59BB0EE480AF0EE680AB0EE8A
:1057A000491AF0EE691AC5E90001FFF771F8B0EE89
:1057B000408AF0EE608A94ED000BB0EE491AF0EEEC
:1057C000691AFFF765F853EC182B51EC100B04F035
:1057D000E5FF41EC100BFFF783FE04F1300787ED86
:1057E000000B96ED021B98ED020B53EC112B51ECC4
:1057F000100B04F0D3FF41EC180B04F1600080EDB6
:10580000028B99ED020B9AED021B53EC102B51EC1D
:10581000110B04F0C3FFC4E90201A4F504709BED71
:10582000020B90ED021B53EC102B51EC110B04F00A
:10583000B5FFB0EE491AF0EE691AB0EE480AF0EE84
:10584000680AC5E90201FFF723F8B0EE408AF0EEDE
:10585000608A94ED020BB0EE491AF0EE691AFFF778
:1058600017F853EC182B51EC100B04F097FF41EC98
:10587000100BFFF735FE87ED020B96ED041B98ED3C
:10588000040B53EC112B51EC100B04F087FF41EC8F
:10589000180B04F1600080ED048B99ED041B9AED68
:1058A000040B53EC112B51EC100B04F077FFC4E9FF
:1058B0000401A4F504709BED041B90ED040B53EC64
:1058C000112B51EC100B04F069FFB0EE491AF0EE09
:1058D000691AB0EE480AF0EE680AC5E90401FEF75D
:1058E000D7FFB0EE408AF0EE608A94ED040BB0EE84
:1058F000491AF0EE691AFEF7CBFF53EC182B51EC66
:10590000100B04F04BFF41EC100BFFF7E9FD87EDA6
:10591000040B96ED060B98ED061B53EC102B51EC87
:10592000110B04F03BFF41EC180B04F1600080ED1B
:10593000068B99ED060B9AED061B53EC102B51ECE0
:10594000110B04F02BFFC4E90601A4F504709BEDD4
:10595000062B90ED061B53EC122B51EC110B04F0AF
:105960001DFFB0EE491AF0EE691AB0EE480AF0EEEB
:10597000680AC5E90601FEF78BFFB0EE408AF0EE3B
:10598000608A94ED060BB0EE491AF0EE691AFEF744
:105990007FFF53EC182B51EC100B04F0FFFE41EC91
:1059A000100BFFF79DFD87ED060B96ED081B98ED9C
:1059B000080B53EC112B51EC100B04F0EFFE41ECF3
:1059C000180B04F1600080ED088B99ED080B9AED3F
:1059D000081B53EC102B51EC110B04F0DFFEC4E953
:1059E0000801A4F504709BED081B90ED080B53EC27
:1059F000112B51EC100B04F0D1FEB0EE491AF0EE71
:105A0000691AB0EE480AF0EE680AC5E90801FEF727
:105A10003FFFB0EE408AF0EE608A94ED080BB0EEE6
:105A2000491AF0EE691AFEF733FF53EC182B51ECCC
:105A3000100B04F0B3FE41EC100BFFF751FD87EDA6
:105A4000080B96ED0A1B98ED0A0B53EC112B51EC49
:105A5000100B04F0A3FE41EC180B04F1600080ED84
:105A60000A8B99ED0A1B9AED0A0B53EC112B51ECA2
:105A7000100B04F093FEC4E90A01A4F504709BED39
:105A80000A0B90ED0A1B53EC102B51EC110B04F098
:105A900085FEB0EE491AF0EE691AB0EE480AF0EE53
:105AA000680AC5E90A01FEF7F3FEB0EE408AF0EE9F
:105AB000608A94ED0A0BB0EE491AF0EE691AFEF70F
:105AC000E7FE53EC182B51EC100B04F067FE41EC91
:105AD000100BFFF705FD164E87ED0A0B002430373B
